:100000000C9434000C9449000C9449000C94490061
:100010000C9449000C9449000C9449000C9449003C
:100020000C9449000C9449000C9449000C9449002C
:100030000C9449000C9449000C9456000C9449000F
:100040000C944B000C9449000C9449000C9449000A
:100050000C9449000C9449000C9449000C944900FC
:100060000C9449000C94490011241FBECFEFD8E036
:10007000DEBFCDBF11E0A0E0B1E0E0E0F1E002C002
:1000800005900D92A230B107D9F70E9475000C942B
:100090007E000C9400001F920F920FB60F92112455
:1000A0005E980F900FBE0F901F9018951F920F92A1
:1000B0000FB60F9211245E9A0F900FBE0F901F90F3
:1000C000189508958AB180668AB95E9884B5806F64
:1000D00084BD84B5836084BD85B5816085BD84E6BB
:1000E00087BD82E388BD789408950E946200809164
:1000F00000018111FECF80E090E00895F894FFCFD9
:020100000100FC
:00000001FF
