:100000000C9434000C9449000C9449000C94490061
:100010000C9449000C9449000C9449000C9449003C
:100020000C9449000C9449000C9449000C9449002C
:100030000C9449000C9449000C9456000C9449000F
:100040000C944B000C9449000C9449000C9449000A
:100050000C9449000C9449000C9449000C944900FC
:100060000C9449000C94490011241FBECFEFD8E036
:10007000DEBFCDBF11E0A0E0B1E0E0EFF0E002C0F4
:1000800005900D92A230B107D9F70E946D000C9433
:1000900076000C9400001F920F920FB60F9211245D
:1000A00059980F900FBE0F901F9018951F920F92A6
:1000B0000FB60F921124599A0F900FBE0F901F90F8
:1000C00018950895519A599881E085BD83E08093F1
:1000D0006E0088EC87BD789408950E94620080913C
:1000E00000018111FECF80E090E00895F894FFCFE9
:0200F00001000D
:00000001FF
