:100000000C9434000C9451000C9451000C94510049
:100010000C9451000C9451000C9451000C9451001C
:100020000C9451000C9451000C9451000C9451000C
:100030000C9451000C9451000C9451000C945100FC
:100040000C9451000C9451000C9451000C945100EC
:100050000C9451000C9451000C9451000C945100DC
:100060000C9451000C94510011241FBECFEFD8E026
:10007000DEBFCDBF11E0A0E0B1E0ECE4F1E002C0F2
:1000800005900D92A230B107D9F721E0A2E0B1E0CE
:1000900001C01D92A830B207E1F70E9498000C94AD
:1000A000A4000C94000083ED90E30197F1F700C0E9
:1000B000000080917A00806880937A0080917A00B5
:1000C00084FFFCCF80917800282F30E03093050129
:1000D000209304018091790090E090930701809330
:1000E0000601982F8827822B932B909303018093EE
:1000F00002018535910528F48BB1897F8BB9589A17
:1001000008958A3A910528F08BB18C7F8BB95A9A61
:1001100008958BB18A7F8BB9599A08958AB1876007
:100120008AB93C98ECE7F0E080818464808308958C
:100130000E948E0080910001882319F00E945300D4
:0C014000F9CF80E090E00895F894FFCF24
:02014C000100B0
:00000001FF
