:100000000C9434000C9451000C9451000C94510049
:100010000C9451000C9451000C9451000C9451001C
:100020000C9451000C9451000C9451000C9451000C
:100030000C9451000C9451000C9451000C945100FC
:100040000C9451000C9451000C9451000C945100EC
:100050000C9451000C9451000C9451000C945100DC
:100060000C9451000C94510011241FBECFEFD8E026
:10007000DEBFCDBF11E0A0E0B1E0ECEFF0E002C0E8
:1000800005900D92A230B107D9F721E0A2E0B1E0CE
:1000900001C01D92A330B207E1F70E9470000C94DA
:1000A0007C000C9400008FE493EC0197F1F700C002
:1000B00000002E98809102018F5F809302018EBD17
:1000C0000DB407FEFDCF2E9A089584B18C6684B9D5
:1000D00024988CB588658CBD8CB58B758CBD0895C6
:1000E0000E94650080910001882319F00E9453004E
:0C00F000F9CF80E090E00895F894FFCF75
:0200FC00010001
:00000001FF
